{
  "address": "0xCf7Ed3AccA5a467e9e704C703E8D87F634fB0Fc9",
  "abi": [
    {
      "inputs": [
        {
          "internalType": "address",
          "name": "vrfCoordinatorV2Address",
          "type": "address"
        },
        {
          "internalType": "uint64",
          "name": "subscriptionId",
          "type": "uint64"
        },
        {
          "internalType": "bytes32",
          "name": "gasLane",
          "type": "bytes32"
        },
        {
          "internalType": "uint16",
          "name": "requestConfirmations",
          "type": "uint16"
        },
        {
          "internalType": "uint32",
          "name": "callbackGasLimit",
          "type": "uint32"
        },
        {
          "internalType": "uint256",
          "name": "entranceFee",
          "type": "uint256"
        },
        {
          "internalType": "uint256",
          "name": "interval",
          "type": "uint256"
        }
      ],
      "stateMutability": "nonpayable",
      "type": "constructor"
    },
    {
      "inputs": [
        {
          "internalType": "address",
          "name": "have",
          "type": "address"
        },
        {
          "internalType": "address",
          "name": "want",
          "type": "address"
        }
      ],
      "name": "OnlyCoordinatorCanFulfill",
      "type": "error"
    },
    {
      "inputs": [],
      "name": "OnlySimulatedBackend",
      "type": "error"
    },
    {
      "inputs": [],
      "name": "Raffle__RaffleNotOpen",
      "type": "error"
    },
    {
      "inputs": [],
      "name": "Raffle__SendMoreToEnterRaffle",
      "type": "error"
    },
    {
      "inputs": [],
      "name": "Raffle__TransferFailed",
      "type": "error"
    },
    {
      "inputs": [
        {
          "internalType": "uint256",
          "name": "currentBalance",
          "type": "uint256"
        },
        {
          "internalType": "uint256",
          "name": "numPlayers",
          "type": "uint256"
        },
        {
          "internalType": "uint256",
          "name": "raffleState",
          "type": "uint256"
        }
      ],
      "name": "Raffle__UpkeepNotNeeded",
      "type": "error"
    },
    {
      "anonymous": false,
      "inputs": [
        {
          "indexed": true,
          "internalType": "address",
          "name": "player",
          "type": "address"
        }
      ],
      "name": "RaffleEnter",
      "type": "event"
    },
    {
      "anonymous": false,
      "inputs": [
        {
          "indexed": true,
          "internalType": "uint256",
          "name": "requestId",
          "type": "uint256"
        }
      ],
      "name": "RequestRaffleWinner",
      "type": "event"
    },
    {
      "anonymous": false,
      "inputs": [
        {
          "indexed": true,
          "internalType": "address",
          "name": "winner",
          "type": "address"
        }
      ],
      "name": "WinnerPicked",
      "type": "event"
    },
    {
      "inputs": [
        {
          "internalType": "bytes",
          "name": "",
          "type": "bytes"
        }
      ],
      "name": "checkUpkeep",
      "outputs": [
        {
          "internalType": "bool",
          "name": "upkeepNeeded",
          "type": "bool"
        },
        {
          "internalType": "bytes",
          "name": "",
          "type": "bytes"
        }
      ],
      "stateMutability": "view",
      "type": "function"
    },
    {
      "inputs": [],
      "name": "enterRaffle",
      "outputs": [],
      "stateMutability": "payable",
      "type": "function"
    },
    {
      "inputs": [],
      "name": "getEntranceFee",
      "outputs": [
        {
          "internalType": "uint256",
          "name": "",
          "type": "uint256"
        }
      ],
      "stateMutability": "view",
      "type": "function"
    },
    {
      "inputs": [],
      "name": "getInterval",
      "outputs": [
        {
          "internalType": "uint256",
          "name": "",
          "type": "uint256"
        }
      ],
      "stateMutability": "view",
      "type": "function"
    },
    {
      "inputs": [],
      "name": "getLastTimeStamp",
      "outputs": [
        {
          "internalType": "uint256",
          "name": "",
          "type": "uint256"
        }
      ],
      "stateMutability": "view",
      "type": "function"
    },
    {
      "inputs": [],
      "name": "getNumWords",
      "outputs": [
        {
          "internalType": "uint256",
          "name": "",
          "type": "uint256"
        }
      ],
      "stateMutability": "pure",
      "type": "function"
    },
    {
      "inputs": [],
      "name": "getNumberOfPlayers",
      "outputs": [
        {
          "internalType": "uint256",
          "name": "",
          "type": "uint256"
        }
      ],
      "stateMutability": "view",
      "type": "function"
    },
    {
      "inputs": [
        {
          "internalType": "uint256",
          "name": "index",
          "type": "uint256"
        }
      ],
      "name": "getPlayer",
      "outputs": [
        {
          "internalType": "address",
          "name": "",
          "type": "address"
        }
      ],
      "stateMutability": "view",
      "type": "function"
    },
    {
      "inputs": [],
      "name": "getRaffleState",
      "outputs": [
        {
          "internalType": "enum Raffle.RaffleState",
          "name": "",
          "type": "uint8"
        }
      ],
      "stateMutability": "view",
      "type": "function"
    },
    {
      "inputs": [],
      "name": "getRecentWinner",
      "outputs": [
        {
          "internalType": "address",
          "name": "",
          "type": "address"
        }
      ],
      "stateMutability": "view",
      "type": "function"
    },
    {
      "inputs": [],
      "name": "getRequestConfirmations",
      "outputs": [
        {
          "internalType": "uint256",
          "name": "",
          "type": "uint256"
        }
      ],
      "stateMutability": "view",
      "type": "function"
    },
    {
      "inputs": [
        {
          "internalType": "bytes",
          "name": "",
          "type": "bytes"
        }
      ],
      "name": "performUpkeep",
      "outputs": [],
      "stateMutability": "nonpayable",
      "type": "function"
    },
    {
      "inputs": [
        {
          "internalType": "uint256",
          "name": "requestId",
          "type": "uint256"
        },
        {
          "internalType": "uint256[]",
          "name": "randomWords",
          "type": "uint256[]"
        }
      ],
      "name": "rawFulfillRandomWords",
      "outputs": [],
      "stateMutability": "nonpayable",
      "type": "function"
    }
  ],
  "transactionHash": "0xc87cbdba71a5115e36a0012b69a3ff61c24b249d39a9685e29298aaec576c118",
  "args": [
    "0x5FbDB2315678afecb367f032d93F642f64180aa3",
    "1",
    "0x474e34a077df58807dbe9c96d3c009b23b3c6d0cce433e59bbf5b34f823bc56c",
    "3",
    "500000",
    "10000000000000000",
    "30"
  ],
  "numDeployments": 1,
  "solcInputHash": "442bc934870b347ac947dee6ba642292",
  "bytecode": "0x6101806040523480156200001257600080fd5b50604051620018fd380380620018fd8339818101604052810190620000389190620002b7565b868073ffffffffffffffffffffffffffffffffffffffff1660808173ffffffffffffffffffffffffffffffffffffffff1681525050508673ffffffffffffffffffffffffffffffffffffffff1660a08173ffffffffffffffffffffffffffffffffffffffff16815250508567ffffffffffffffff1660e08167ffffffffffffffff16815250508460c081815250508361ffff166101008161ffff16815250508263ffffffff166101208163ffffffff168152505081610140818152505080610160818152505042600281905550505050505050506200036a565b600080fd5b600073ffffffffffffffffffffffffffffffffffffffff82169050919050565b6000620001448262000117565b9050919050565b620001568162000137565b81146200016257600080fd5b50565b60008151905062000176816200014b565b92915050565b600067ffffffffffffffff82169050919050565b6200019b816200017c565b8114620001a757600080fd5b50565b600081519050620001bb8162000190565b92915050565b6000819050919050565b620001d681620001c1565b8114620001e257600080fd5b50565b600081519050620001f681620001cb565b92915050565b600061ffff82169050919050565b6200021581620001fc565b81146200022157600080fd5b50565b60008151905062000235816200020a565b92915050565b600063ffffffff82169050919050565b62000256816200023b565b81146200026257600080fd5b50565b60008151905062000276816200024b565b92915050565b6000819050919050565b62000291816200027c565b81146200029d57600080fd5b50565b600081519050620002b18162000286565b92915050565b600080600080600080600060e0888a031215620002d957620002d862000112565b5b6000620002e98a828b0162000165565b9750506020620002fc8a828b01620001aa565b96505060406200030f8a828b01620001e5565b9550506060620003228a828b0162000224565b9450506080620003358a828b0162000265565b93505060a0620003488a828b01620002a0565b92505060c06200035b8a828b01620002a0565b91505092959891949750929550565b60805160a05160c05160e05161010051610120516101405161016051611511620003ec6000396000818161081b01526108c40152600081816102fa01526103f7015260006106bb01526000818161069a01526107b101526000610679015260006106580152600061061c015260008181610337015261038b01526115116000f3fe6080604052600436106100c25760003560e01c806353a2c19a1161007f57806391ad27b41161005957806391ad27b414610238578063c1c244e814610263578063e55ae4e81461028e578063fd6673f5146102cb576100c2565b806353a2c19a146101a45780635f1b0fd8146101cf5780636e04ff0d146101fa576100c2565b806309bc33a7146100c7578063115cbaf5146100f25780631fe543e31461011d5780632cfcc539146101465780634585e33b14610150578063473f1ddc14610179575b600080fd5b3480156100d357600080fd5b506100dc6102f6565b6040516100e99190610c9b565b60405180910390f35b3480156100fe57600080fd5b5061010761031e565b6040516101149190610d2d565b60405180910390f35b34801561012957600080fd5b50610144600480360381019061013f9190610ee1565b610335565b005b61014e6103f5565b005b34801561015c57600080fd5b5061017760048036038101906101729190610f98565b610564565b005b34801561018557600080fd5b5061018e610774565b60405161019b9190611026565b60405180910390f35b3480156101b057600080fd5b506101b961079e565b6040516101c69190610c9b565b60405180910390f35b3480156101db57600080fd5b506101e46107ad565b6040516101f19190610c9b565b60405180910390f35b34801561020657600080fd5b50610221600480360381019061021c91906110f6565b6107d9565b60405161022f9291906111d9565b60405180910390f35b34801561024457600080fd5b5061024d6108c0565b60405161025a9190610c9b565b60405180910390f35b34801561026f57600080fd5b506102786108e8565b6040516102859190610c9b565b60405180910390f35b34801561029a57600080fd5b506102b560048036038101906102b09190611209565b6108f2565b6040516102c29190611026565b60405180910390f35b3480156102d757600080fd5b506102e0610939565b6040516102ed9190610c9b565b60405180910390f35b60007f0000000000000000000000000000000000000000000000000000000000000000905090565b6000600360009054906101000a900460ff16905090565b7f000000000000000000000000000000000000000000000000000000000000000073ffffffffffffffffffffffffffffffffffffffff163373ffffffffffffffffffffffffffffffffffffffff16146103e757337f00000000000000000000000000000000000000000000000000000000000000006040517f1cf993f40000000000000000000000000000000000000000000000000000000081526004016103de929190611236565b60405180910390fd5b6103f18282610945565b5050565b7f000000000000000000000000000000000000000000000000000000000000000034101561044f576040517f3038c00a00000000000000000000000000000000000000000000000000000000815260040160405180910390fd5b6000600181111561046357610462610cb6565b5b600360009054906101000a900460ff16600181111561048557610484610cb6565b5b146104bc576040517fd24a271400000000000000000000000000000000000000000000000000000000815260040160405180910390fd5b6000339080600181540180825580915050600190039060005260206000200160009091909190916101000a81548173ffffffffffffffffffffffffffffffffffffffff021916908373ffffffffffffffffffffffffffffffffffffffff1602179055503373ffffffffffffffffffffffffffffffffffffffff167f0805e1d667bddb8a95f0f09880cf94f403fb596ce79928d9f29b74203ba284d460405160405180910390a2565b600061057e604051806020016040528060008152506107d9565b509050806105ed5747600080549050600360009054906101000a900460ff1660018111156105af576105ae610cb6565b5b6040517f584327aa0000000000000000000000000000000000000000000000000000000081526004016105e49392919061125f565b60405180910390fd5b6001600360006101000a81548160ff0219169083600181111561061357610612610cb6565b5b021790555060007f000000000000000000000000000000000000000000000000000000000000000073ffffffffffffffffffffffffffffffffffffffff16635d3b1d307f00000000000000000000000000000000000000000000000000000000000000007f00000000000000000000000000000000000000000000000000000000000000007f00000000000000000000000000000000000000000000000000000000000000007f000000000000000000000000000000000000000000000000000000000000000060016040518663ffffffff1660e01b81526004016106fc95949392919061130e565b6020604051808303816000875af115801561071b573d6000803e3d6000fd5b505050506040513d601f19601f8201168201806040525081019061073f9190611376565b9050807fde6349b018d6c03d837b67d9a198a6ba4842546f2295fe963fae141e5dbaef8160405160405180910390a250505050565b6000600160009054906101000a900473ffffffffffffffffffffffffffffffffffffffff16905090565b6000600163ffffffff16905090565b60007f000000000000000000000000000000000000000000000000000000000000000061ffff16905090565b6000606060008060018111156107f2576107f1610cb6565b5b600360009054906101000a900460ff16600181111561081457610813610cb6565b5b14905060007f00000000000000000000000000000000000000000000000000000000000000006002544261084891906113d2565b119050600080600080549050119050600080471190508380156108685750825b80156108715750815b801561087a5750805b9550856040518060400160405280600381526020017f30783000000000000000000000000000000000000000000000000000000000008152509550955050505050915091565b60007f0000000000000000000000000000000000000000000000000000000000000000905090565b6000600254905090565b600080828154811061090757610906611406565b5b9060005260206000200160009054906101000a900473ffffffffffffffffffffffffffffffffffffffff169050919050565b60008080549050905090565b6000808054806020026020016040519081016040528092919081815260200182805480156109c857602002820191906000526020600020905b8160009054906101000a900473ffffffffffffffffffffffffffffffffffffffff1673ffffffffffffffffffffffffffffffffffffffff168152602001906001019080831161097e575b5050505050905060008151836000815181106109e7576109e6611406565b5b60200260200101516109f99190611464565b90506000828281518110610a1057610a0f611406565b5b6020026020010151905080600160006101000a81548173ffffffffffffffffffffffffffffffffffffffff021916908373ffffffffffffffffffffffffffffffffffffffff160217905550600067ffffffffffffffff811115610a7657610a75610d9e565b5b604051908082528060200260200182016040528015610aa45781602001602082028036833780820191505090505b5060009080519060200190610aba929190610bdb565b50426002819055506000600360006101000a81548160ff02191690836001811115610ae857610ae7610cb6565b5b021790555060008173ffffffffffffffffffffffffffffffffffffffff1647604051610b13906114c6565b60006040518083038185875af1925050503d8060008114610b50576040519150601f19603f3d011682016040523d82523d6000602084013e610b55565b606091505b5050905080610b90576040517fa1d04b3900000000000000000000000000000000000000000000000000000000815260040160405180910390fd5b8173ffffffffffffffffffffffffffffffffffffffff167f5b690ec4a06fe979403046eaeea5b3ce38524683c3001f662c8b5a829632f7df60405160405180910390a2505050505050565b828054828255906000526020600020908101928215610c54579160200282015b82811115610c535782518260006101000a81548173ffffffffffffffffffffffffffffffffffffffff021916908373ffffffffffffffffffffffffffffffffffffffff16021790555091602001919060010190610bfb565b5b509050610c619190610c65565b5090565b5b80821115610c7e576000816000905550600101610c66565b5090565b6000819050919050565b610c9581610c82565b82525050565b6000602082019050610cb06000830184610c8c565b92915050565b7f4e487b7100000000000000000000000000000000000000000000000000000000600052602160045260246000fd5b60028110610cf657610cf5610cb6565b5b50565b6000819050610d0782610ce5565b919050565b6000610d1782610cf9565b9050919050565b610d2781610d0c565b82525050565b6000602082019050610d426000830184610d1e565b92915050565b6000604051905090565b600080fd5b600080fd5b610d6581610c82565b8114610d7057600080fd5b50565b600081359050610d8281610d5c565b92915050565b600080fd5b6000601f19601f8301169050919050565b7f4e487b7100000000000000000000000000000000000000000000000000000000600052604160045260246000fd5b610dd682610d8d565b810181811067ffffffffffffffff82111715610df557610df4610d9e565b5b80604052505050565b6000610e08610d48565b9050610e148282610dcd565b919050565b600067ffffffffffffffff821115610e3457610e33610d9e565b5b602082029050602081019050919050565b600080fd5b6000610e5d610e5884610e19565b610dfe565b90508083825260208201905060208402830185811115610e8057610e7f610e45565b5b835b81811015610ea95780610e958882610d73565b845260208401935050602081019050610e82565b5050509392505050565b600082601f830112610ec857610ec7610d88565b5b8135610ed8848260208601610e4a565b91505092915050565b60008060408385031215610ef857610ef7610d52565b5b6000610f0685828601610d73565b925050602083013567ffffffffffffffff811115610f2757610f26610d57565b5b610f3385828601610eb3565b9150509250929050565b600080fd5b60008083601f840112610f5857610f57610d88565b5b8235905067ffffffffffffffff811115610f7557610f74610f3d565b5b602083019150836001820283011115610f9157610f90610e45565b5b9250929050565b60008060208385031215610faf57610fae610d52565b5b600083013567ffffffffffffffff811115610fcd57610fcc610d57565b5b610fd985828601610f42565b92509250509250929050565b600073ffffffffffffffffffffffffffffffffffffffff82169050919050565b600061101082610fe5565b9050919050565b61102081611005565b82525050565b600060208201905061103b6000830184611017565b92915050565b600080fd5b600067ffffffffffffffff82111561106157611060610d9e565b5b61106a82610d8d565b9050602081019050919050565b82818337600083830152505050565b600061109961109484611046565b610dfe565b9050828152602081018484840111156110b5576110b4611041565b5b6110c0848285611077565b509392505050565b600082601f8301126110dd576110dc610d88565b5b81356110ed848260208601611086565b91505092915050565b60006020828403121561110c5761110b610d52565b5b600082013567ffffffffffffffff81111561112a57611129610d57565b5b611136848285016110c8565b91505092915050565b60008115159050919050565b6111548161113f565b82525050565b600081519050919050565b600082825260208201905092915050565b60005b83811015611194578082015181840152602081019050611179565b60008484015250505050565b60006111ab8261115a565b6111b58185611165565b93506111c5818560208601611176565b6111ce81610d8d565b840191505092915050565b60006040820190506111ee600083018561114b565b818103602083015261120081846111a0565b90509392505050565b60006020828403121561121f5761121e610d52565b5b600061122d84828501610d73565b91505092915050565b600060408201905061124b6000830185611017565b6112586020830184611017565b9392505050565b60006060820190506112746000830186610c8c565b6112816020830185610c8c565b61128e6040830184610c8c565b949350505050565b6000819050919050565b6112a981611296565b82525050565b600067ffffffffffffffff82169050919050565b6112cc816112af565b82525050565b600061ffff82169050919050565b6112e9816112d2565b82525050565b600063ffffffff82169050919050565b611308816112ef565b82525050565b600060a08201905061132360008301886112a0565b61133060208301876112c3565b61133d60408301866112e0565b61134a60608301856112ff565b61135760808301846112ff565b9695505050505050565b60008151905061137081610d5c565b92915050565b60006020828403121561138c5761138b610d52565b5b600061139a84828501611361565b91505092915050565b7f4e487b7100000000000000000000000000000000000000000000000000000000600052601160045260246000fd5b60006113dd82610c82565b91506113e883610c82565b9250828203905081811115611400576113ff6113a3565b5b92915050565b7f4e487b7100000000000000000000000000000000000000000000000000000000600052603260045260246000fd5b7f4e487b7100000000000000000000000000000000000000000000000000000000600052601260045260246000fd5b600061146f82610c82565b915061147a83610c82565b92508261148a57611489611435565b5b828206905092915050565b600081905092915050565b50565b60006114b0600083611495565b91506114bb826114a0565b600082019050919050565b60006114d1826114a3565b915081905091905056fea26469706673582212201607170a01b9526f35494db6e0a3169ad88285e58ebbae899bc6238f5eefdc3d64736f6c63430008120033",
  "devdoc": {
    "kind": "dev",
    "methods": {},
    "version": 1
  },
  "userdoc": {
    "kind": "user",
    "methods": {},
    "version": 1
  },
  "storageLayout": {
    "storage": [
      {
        "astId": 1212,
        "contract": "contracts/Raffle.sol:Raffle",
        "label": "s_players",
        "offset": 0,
        "slot": "0",
        "type": "t_array(t_address_payable)dyn_storage"
      },
      {
        "astId": 1214,
        "contract": "contracts/Raffle.sol:Raffle",
        "label": "s_recentWinner",
        "offset": 0,
        "slot": "1",
        "type": "t_address"
      },
      {
        "astId": 1216,
        "contract": "contracts/Raffle.sol:Raffle",
        "label": "s_lastTimeStamp",
        "offset": 0,
        "slot": "2",
        "type": "t_uint256"
      },
      {
        "astId": 1219,
        "contract": "contracts/Raffle.sol:Raffle",
        "label": "s_raffleState",
        "offset": 0,
        "slot": "3",
        "type": "t_enum(RaffleState)1195"
      }
    ],
    "types": {
      "t_address": {
        "encoding": "inplace",
        "label": "address",
        "numberOfBytes": "20"
      },
      "t_address_payable": {
        "encoding": "inplace",
        "label": "address payable",
        "numberOfBytes": "20"
      },
      "t_array(t_address_payable)dyn_storage": {
        "base": "t_address_payable",
        "encoding": "dynamic_array",
        "label": "address payable[]",
        "numberOfBytes": "32"
      },
      "t_enum(RaffleState)1195": {
        "encoding": "inplace",
        "label": "enum Raffle.RaffleState",
        "numberOfBytes": "1"
      },
      "t_uint256": {
        "encoding": "inplace",
        "label": "uint256",
        "numberOfBytes": "32"
      }
    }
  }
}